:020000040800F2
:10000000A80600204D4F0008F94E0008FD4E0008DC
:1000100000000000000000000000000000000000E0
:10002000000000000000000000000000014F000878
:100030000000000000000000034F0008054F00080A
:1000400057100008AF100008C7100008671200081A
:100050006B170008FF1700080318000807180008AE
:100060000B260008532F00089B4000081B42000885
:10007000E3420008E7470008734C0008BD4D000844
:100080000B4E00081B4E0008CF4E00085D4F0008C5
:100090005F4F0008614F0008634F0008654F00087C
:1000A000674F0008694F00086B4F00086D4F00084C
:1000B0006F4F0008714F0008734F000801002020A7
:1000C00008437047FDB5B2B03A98049102AA3B21AB
:1000D000505400200D9027A8401C31900DE004984A
:1000E000329A90470490002801D100F0D2FE0D987A
:1000F000401C0D903398401C3390339801780029B0
:100100000FD02529EBD100200790089009900A9084
:100110000B900C9002250121149108211291339C1F
:1001200005E00D9800F0B7FE010014980843641C28
:1001300021782029F8D023290BD02B2904D02D2970
:1001400004D0302908D00AE02843F0E70100042059
:10015000ECE701000820E9E701001020E6E72A2982
:100160000FD134990A681168121D349B1A600F91DF
:10017000002904D54A420F92010004200843641C60
:1001800012E000210F91644909E00F9E8E4205DACA
:10019000B3009B195B009A18303A0F92641C2278C6
:1001A0001300303B0A2BF0D321782E2903D00021F5
:1001B000C9430E9127E0641C21782A2908D134997B
:1001C0000A681168131D349A13600E91641C1AE0BA
:1001D0002D2902D12D23641C00E0002300210E9163
:1001E0000CE0002B09D10E994B4EB14205DA8E007E
:1001F00071184900891830390E91641C2278110059
:1002000030390A29EDD302A9088726783100404801
:100210007844FF30C01E00F015FF002801D0641C98
:1002200000E0002602A83A21465402A9682E04D113
:10023000207868280AD1622005E06C2E06D120784B
:100240006C2803D171203A228854641C18A80690A7
:10025000217868460170601C33906846047821005C
:10026000253933D01C3900D1CCE1091F022900D82F
:10027000C8E1133901D100F027FD093900D1C1E1EE
:10028000891E01D100F0CBFD491E01D100F078FD9F
:10029000491E022900D8B5E1091F01D100F070FD07
:1002A000491F00D108E1491E01D100F00DFD491E92
:1002B00000D1F0E0C91E0ED0891E01D100F004FD6E
:1002C000C91E01D100F000FD00F0B4FD14980790A4
:1002D000252118A87CE1349800680468011D349831
:1002E00001600594002C00D0C1E002A93B20085C0D
:1002F000002800D1B5E00024E443064878441430D7
:1003000000F0AAFE201A01D000F0C3FD00F0A0FD0D
:10031000A4480000D8480000CBCCCC0C01236A468E
:1003200002A9280000F072FE002801D000F0B1FD03
:10033000641EF3D13295079C18AD002C0FD0329E6D
:1003400029780498B0470490002801D100F0A1FD5D
:100350000D98401C0D906D1C641EF1D13296302119
:10036000684601700A9C002C0DDD329D01236A460F
:1003700002A9280000F04AFE002801D000F089FD03
:10038000641EF3D13295059D089C002C0FD0329E3F
:1003900029780498B0470490002801D100F079FD35
:1003A0000D98401C0D906D1C641EF1D132963027C3
:1003B000684607700B9C002C0DDD329D01236A46B8
:1003C00002A9280000F022FE002801D000F061FD03
:1003D000641EF3D13295059908980D18099C002CDC
:1003E0000FD0329E29780498B0470490002801D19C
:1003F00000F04FFD0D98401C0D906D1C641EF1D156
:100400003296684607700C9C002C0DDD329D01234E
:100410006A4602A9280000F0F9FD002801D000F08A
:1004200038FD641EF3D1329502A93820085C4007DC
:1004300000D462E62021684601700198002800DCA3
:100440005BE6019C329D01236A4602A9280000F068
:10045000DDFD002801D000F01CFD641EF3D13295B3
:100460004BE61B4878446830059000F0F1FC0E9D87
:10047000002D03D5200000F013FE09E02A00002122
:10048000200000F015FE002801D0001B00E028002D
:10049000089000F0DDFC349800680268011D349873
:1004A00001600020C0430021104002AA03C218A826
:1004B0000590782100F0AFFC02A83B21415C0029A7
:1004C00008D00024E4434B487844FF30293017E734
:1004D000384700003A21405C62286AD0682819D069
:1004E0006A2845D06C2806D071284FD0742831D0A6
:1004F0007A2821D06FE03498016808680A1D349981
:100500000A6000287AD10024E4433B487844FF3055
:100510001738F5E63498016808680A1D34990A60AE
:10052000002805D10024E44333487844CA30E7E684
:100530000D99018000F08CFC3498016808680A1D50
:1005400034990A60002859D10024E4432A487844A9
:10055000A630D5E63498016808680A1D34990A6007
:1005600000284BD10024E443234878448A30C7E66E
:10057000349800680268011D34980160002A13D184
:100580000024E4431C4878446E30B9E6349800688F
:100590000268011D34980160002A05D10024E4435B
:1005A000154878445230ABE60D98C11703C200F0ED
:1005B0004FFC3498016808680A1D34990A600028C5
:1005C00005D10024E4430C4878442C3098E60D997A
:1005D000017000F03DFC3498016808680A1D3499E8
:1005E0000A6000280AD10024E44303487844083014
:1005F00086E600BFC8450000DC4500000D9901609B
:1006000000F026FC34980068C21D0720824334980D
:10061000026003CA349B1A6002AA03C22022C80FD8
:1006200002D007982D2209E002A8018F294202D0AA
:1006300007982B2202E0C80704D5079818A90A5486
:10064000401C079018A9079808181390059027AD2B
:1006500002A803C816AA03C26846017820200843EE
:10066000694688706846807861280BD00E9800280B
:1006700001D5062005E005D168468078672801D1BC
:1006800014980E9002A803C80B0002185B415A157B
:10069000DB17BAA6C0CEBB4212D1B24210D10903B9
:1006A000020D11430003002901D1002808D00320C6
:1006B0000890613C1A2C19D31B4979446A3110E027
:1006C00002A803C8080041004A15B24212D1000333
:1006D00010D103200890613C1A2C21D3134979448E
:1006E0004A310322139800F009FDB1E3104979441F
:1006F0003E31F6E701AA02A803C800F00CFD02AAE9
:1007000003C26846807861281BD1059830210170AA
:10071000811C05916946097861290DD178210CE089
:10072000044979440E31DCE7E8440000EC44000061
:10073000DC440000E0440000582141700798801C10
:10074000079002A803C83246530802400B4004D168
:10075000002A02D10024002655E1684680786128ED
:1007600000D095E00E98002801D5212000E0401C23
:100770001390139F7F1C16A803C80022002300F0CB
:10078000DFFC02A830C802D2802000064540019854
:10079000001F019027A80270461C002F31DD2000A9
:1007A0002900002280235B0300F0E3FC29D81C22EF
:1007B00000F0F8FC04000D0000F02CFD1590FF1F68
:1007C000002F09DD00F060FD02000B002000290071
:1007D00000F0C1FD04000D00F01D0722159900294D
:1007E0000ADD521E08D4401E0B071B0F03700911AF
:1007F000F5E7401E00210170521EFAD5C61D002FDC
:10080000CDDC27A83199711A27AA551C139A0C0020
:10081000914200DD1400002C33D48C4205DA411CD7
:10082000095D082901DB0F2100E00021220027AB30
:100830009B1801E0641E5B1E521E1E788E42F9D08A
:100840000F2904D1411C895C491C401C8154002A99
:1008500004D527AD641C0198001D0190611E10D4C1
:100860006B18684600781E783036F2B23A2A01DBFF
:100870008619C6361E70491E5B1E0029F3D56946CF
:1008800008700E98002800D4BCE0601E0E90B9E0FD
:1008900016A830C86D006D0801986849484368493A
:1008A00000F0E6FD019007200199401A002805DDBF
:1008B00002002000290000F083FB0AE042420020F1
:1008C000604900F07DFB02000B002000290000F0D1
:1008D00029FE6A469278662A02D1019B0A3300E01B
:1008E00006230E9AD218142A00DD142227AB3024D6
:1008F0001C705C1C02E016A803C8139A002A41DD94
:1009000016AB03C3139216A803C800F095FC15900C
:1009100006460834042530000A2100F0ACFD0F0023
:1009200030000A2100F0A7FD06003037601E077076
:1009300030000A2100F09FFD0F0030000A2100F076
:100940009AFD0600A41E303727706D1EE3D10834CF
:100950001398083813900028CDDD159800F084FC1A
:1009600002000B0016A803C800F0F5FC0022364B6D
:1009700000F039FE16AA03C2C5E700BFFFFFFFFF64
:10098000FFFFFFFF3198201A27A94D1C04E0401EED
:100990000199491E01916D1C29783029F7D06946CB
:1009A0008978662902D1019A521C06E06946897845
:1009B000652901D1149A00E000220E998C18A042FA
:1009C00000DA441E002C1DD4844204DA285D342849
:1009D00001DD392000E0302021006A1E531801E0BB
:1009E000641E5B1E491E1E788642F9D0392802D14A
:1009F000685C401C6854002904D51500641C0198EB
:100A0000401C0190019E139568460178417000F0EA
:100A1000ADFE406A0178684601700E9D20B2002844
:100A200004DC149C044878440E30139068468078A7
:100A300066280BD1761C24E0E44100009775000085
:100A4000A08601000000F03F84D797416846807877
:100A5000672847D131B20320C043814248DB30B21E
:100A6000A84245DA761C02A8018F1298C9B2014249
:100A700003D120B2A84200DC050030B22D1A00D507
:100A8000002537B2002F00DDB9E00898411C08911D
:100A90003021059A1154002D05DC02A8018F12980F
:100AA000C9B2014206D00898411C089169460978EC
:100AB000059A11547842854200DA6E4236B270428D
:100AC0000B90AD1920B2854200DA2C0024B20994B3
:100AD00022001399059B0898181800F00FFB281B9B
:100AE0000C90D9E068464078612816D1702119E051
:100AF00020B2A84206DA02A90A8F1299D2B20A429B
:100B000000D105006D1E00D5002568464078672895
:100B100001D1652106E0452104E06846407841287E
:100B200002D15021684641700898411C08911399E0
:100B30000978059A11541398411C002D05DC02A870
:100B4000028F1298D2B2024219D00898421C089221
:100B50006A461278059B1A54002D10DD641E20B2DF
:100B6000854200DA2C0022B2059B0898181800F084
:100B7000C5FA24B2089800190890281B0B90059913
:100B80000898091868464078087030B2002803D4E5
:100B90002B2048708F1C03E02D224A708F1C464288
:100BA000002412AD300008E00A2100F061FC15AA13
:100BB00003C229701598641C6D1C00B20028F3DC78
:100BC000012C08DC6846407820210143652902D1C8
:100BD000302038707F1C002C09D1302038707F1CE9
:100BE00007E0641E12A8005D303038707F1C002CB6
:100BF000F7DC059908980818381A09904CE020B2DB
:100C000031B288421DDA22B21399059B0898181850
:100C100000F074FA24B2089800190890391B0B915F
:100C2000002D05DC02A90A8F1299D2B20A4206D021
:100C300069460978059A11540998401C09900C9549
:100C40002AE032B213990598089BC01800F056FAB2
:100C50000898C0190890A41B002D05DC02A90A8F72
:100C60001299D2B20A4205D0411C089169460A780D
:100C700005990A5420B2854200DA2C0022B213985A
:100C8000C119059B0898181800F038FA24B2089882
:100C900000190890281B0B9002A83821405C1421F1
:100CA0000140102900D0D3E00798089941180B980B
:100CB0000918099808180C9941180F98814200DB0F
:100CC000C6E0401A0A90C3E002AA3A20105C6228EB
:100CD00008D068280ED06A2814D06C282BD0712830
:100CE0001ED028E03498016808680B1D34990B6009
:100CF000C0B226E0349801680868091D349B196069
:100D000080B21EE034980068C31D072083433498E6
:100D1000036003CB083B1C000834349B1C6011E0CB
:100D200034980068C31D072083433498036003CBC5
:100D3000349C236006E0349801680868091D349BE0
:100D40001960002102AB03C3118F1298C9B201428E
:100D50005BD002A803C8002901D1002855D06846FD
:100D600000782021014378294FD1079918A8302213
:100D70004254491C4A1C07926A461278425444E085
:100D800002AA3A20105C622808D068280ED06A288F
:100D900014D06C281DD0712810D01AE03498016846
:100DA00008680B1D34990B6040B218E03498016854
:100DB00008680B1D34990B6000B210E0349800688D
:100DC000C31D072083433498036003CB349C236006
:100DD00006E03498016808680B1D34990B60C11750
:100DE00002AB03C3002902DA07982D2209E0118F14
:100DF000294202D007982B2203E0C80705D507989F
:100E0000202218A90A54401C079018A807994018D6
:100E100005906846017802A800F03FF818E01498A1
:100E200007903498016808680A1D34990A6018A967
:100E300008700DE014980790252118A801706846E5
:100E40000078002804D007956846007818A94870F3
:100E50000F980799411A0A98081A0899401A0B998D
:100E6000401A0999401A0C99401A019002A8382199
:100E7000405C400701D5FFF75EFA20206946087004
:100E80000198002801DCFFF756FA019C329DFFF71C
:100E900045FA0020C04335B0F0BDF2B586B004007D
:100EA00025696F2901D1082707E00846FFF706F9F1
:100EB000782801D00A2700E010273C2603CC083C04
:100EC00004AA03C26A46127E642A03D06A46127ECE
:100ED000692A09D1002907DA04A803C800220023DF
:100EE000121A8B4104A80CC004A803C800290ED113
:100EF00000280CD1206B002809D1082F3ED13820C2
:100F0000205C00073AD53B263021A95536E00294F3
:100F1000009504A830C8761E0196200029003A00EA
:100F2000002300F029FC3032D0B23A280DDA0098C4
:100F30008255200029003A00002300F01DFC040027
:100F40000D0007D1002C05D10AE06846007E82180A
:100F5000AF32ECE70298C068009989198842DAD369
:100F6000029C009D082F09D13820205C000705D580
:100F7000A85D302802D0761E3020A8553C20801B6A
:100F8000A061A919E160216B884206DA081A206283
:100F9000208F1C490140218710E000290ED53821FF
:100FA000615C14220A40102A08D1626B6169521AEE
:100FB000216A511A081A002800DD206207B0F0BD2E
:100FC000F8B50026104F04000D00009214E0C00791
:100FD00007D532003B002000290000F004FB04008C
:100FE0000D000098401000903000390032003B00A6
:100FF00000F0F9FA06000F0000980028E7D1200061
:101000002900F4BDEFFF000000002440F8B50024E3
:10101000002B11D007000E0015001C002978B068C5
:10102000B847B060002809D0F06A401CF062002088
:101030006D1C641EF2D104002000F2BD0020C043EC
:10104000F9E72E00C9B202788A4203D0401C002A78
:10105000F9D100207047FEE780B5002801D100BF1C
:1010600007A006490B68002B03D0222200219847D5
:1010700001E000F0BFFB222002BD0000A002002022
:10108000636F6E73747261696E742068616E646CF4
:1010900065723A20626164206D65737361676500F3
:1010A000431C0178401C0942FBD1C01A7047FEE77F
:1010B000C9B2521E05D30378401C8B42F9D1401EA1
:1010C000704700207047FEE770B4103A03D378C928
:1010D000103A78C0FBD2530701D318C918C001D504
:1010E00008C908C0D20704D30B880380891C801C60
:1010F000002A01D50B78037070BC70478B0701D1B3
:101100008307E1D0124205D00B78491C0370401CC4
:10111000521EF9D1704710B5144600F002F8226053
:1011200010BD4A0053155B1C08D0520D06D0032396
:101130001B02FE3AD21A1305C91A704700227047E3
:1011400030B4012464054D00EC420BD85D00EC4244
:1011500008D80C001C4364000443144304D2994291
:1011600000D1904230BC7047FCD08B42FAD1824211
:10117000F8E730B4012464054D00EC420BD85D0063
:10118000EC4208D80C001C4364000443144304D20E
:101190008B4200D1824230BC7047FCD09942FAD1D8
:1011A0009042F8E7124217D40023DB435B0D9C46C4
:1011B0004B005B0D06D0634504D09B18634502D2FB
:1011C0001205891870476246090D11430905002070
:1011D00000B500BF00BF00BD52424B005B0DF1D017
:1011E0005B1C5B05EED25B0D934102D91205891A97
:1011F00070470BD10B031B13C90FC907821C0020BA
:1012000043411343E4D912051143E1E7C90FC9076C
:101210000020DDE7F4464A1805D200F00FF801D5AA
:1012200080174008604700F009F80121C90788428B
:1012300000D90800404260474A1812D2400DC90246
:1012400008430121C9070843520D40210901521AE0
:10125000521C06D452421F3201D4D0407047C017EE
:10126000704700207047FEE7010042221201D21EA3
:10127000004207D002D4521E0018FCD5C10A400516
:1012800012058918704700000100EED54042F4466F
:10129000FFF7EBFF0122D207114360478B4200D1D9
:1012A000824205D98446100062468C461900634686
:1012B000DF184C18640D7F0D3AD0661C760537D0C8
:1012C000E61B352E34DCDB022B43DB0A0C0DC90296
:1012D0002943C912202E0DDB1700203E06D01F0027
:1012E000F741F3405F400026012A7741C018714161
:1012F0000DD217E01700F741F2405740F3415A4032
:10130000B340F3405A400026801859410AD3A21C2A
:1013100052050FD0C207012F724117004008CB07BA
:1013200018434908641C24054208AF4170416141DB
:10133000F0BC7047641C21050020F9E76B4010E009
:101340006B40ABE7F742F3D1E943F1E72442EFD139
:1013500000200021ECE7F0B40125ED070F005F400D
:10136000EED40C00871A9C4105D2C01BA141D219B2
:10137000634169406B40AE0ADF184C18F442E1D279
:10138000640D7F0DE2D0E61B362ED1DCDB022B4351
:10139000DB0AA4460C0DC9022943C90A012E28DC28
:1013A00004D1D6075208DF073A435B08EF0A7642BA
:1013B0009041994114D039423BD1B619404149413D
:1013C000761C394204D1761C001849413942FAD0C2
:1013D000B9436746B74208D9A41B24052143A7E7B0
:1013E0000042EAD13642E8D1A2E7E40AE107002050
:1013F0009EE7202E0BDD203E1F00F340F7415F40AB
:10140000012A002257417E42984191410BE017008A
:10141000F741F2405740F3415A40B340F3405A403D
:101420007E42904199410A0303D2641EB61940419D
:1014300049410027641E24054208AE4178416141BC
:10144000F0BC7047F446002804D4494200F013F879
:10145000404260474042002905D45FD000F00BF8BD
:10146000404249426047494200F005F8494260471E
:1014700003460B43E6D40022030A8B420BD2030936
:101480008B4219D243088B422ED2411A00D2014618
:10149000524110467047FF2209023FD012068B428C
:1014A00005D3121209028B4201D312120902030959
:1014B0008B4219D300E0090AC3098B4201D3CB0147
:1014C000C01A524183098B4201D38B01C01A524189
:1014D00043098B4201D34B01C01A524103098B428D
:1014E00001D30B01C01A5241C3088B4201D3CB0078
:1014F000C01A524183088B4201D38B00C01A52415B
:1015000043088B4201D34B00C01A5241884200D39A
:10151000401A5241CFD201461046704708B500F03C
:101520006FF908BDF0B40E005E400125ED072E40B6
:10153000B446AE0ADF184C18F4423BD2F74241D20F
:10154000640D43D07F0D38D0E41BC902DB02294370
:101550002B43CF0ADB0A0600B61A9F4104D2641E51
:10156000B6197F41B6185F416812800D2418001823
:10157000844222DCE80C0021B6197F41B61A9F4153
:1015800002D2B6185F413F1C40414941F4D3241CAC
:1015900021DD2405B6197F41B61A9F4105D3374393
:1015A000C60737430026012F70416141664631432B
:1015B000F0BC7047FCD1F74205D20020C143490579
:1015C0004908F3E704D00020C143F1E77F0DFAD0CA
:1015D00000206146ECE72442FAD1401C61410F0330
:1015E000F6D30020E2E7F0B50E005E400125ED07DE
:1015F0002E40B446AE0ADF184C18F44208D2F74227
:101600000ED2640D01D07F0D12D100206146F0BDD5
:1016100005D1F74201D87F0D05D10020C143F0BDAF
:10162000FBD1640DF9D00020C143490549088FE082
:10163000E419C902DB0229432B43DB0A460DC00231
:1016400031438E4630B487B295B27D432E0CADB295
:10165000140C7C43A419260C240425439CB27C431F
:10166000A419190C7943270CC919A4B20F043C43DF
:10167000090C000C97B247432E0CBE193543ADB28E
:10168000170C4743360CBF19A6B2BF193E043543A9
:10169000240C3E0C36199FB24743BF19BCB23E0C16
:1016A00089191F0C47437F183E043443390C704698
:1016B00080B297B247432E0CBE193543ADB2170C1A
:1016C0004743360CBF19A6B2BF193E043543240C5C
:1016D0003E0C36199FB24743BF19BCB23E0C891964
:1016E0001F0C47437F183E043443390C77463F0CA8
:1016F00090B278432E0C80190604ADB22E43050C2F
:10170000A0B22D18120C7A435019020C80B2240C8E
:10171000A4189AB27A43121914042043120C89189F
:101720001B0C7B43C91830BCEF0A394203D1B619F0
:1017300040414941641E6F12BF0DE41B0BDBFF19D2
:10174000BC4211DA240500274208AE4178416141CC
:1017500066463143F0BD641C05D1401C6141CF0297
:1017600001D34908F4E750E75DE7FEE70148704719
:10177000000000000001002012422DD0994231D912
:1017800070B500251B4209D00C00002112E01100A9
:10179000FFF771FE0A000021002370BD0942F6D058
:1017A0000024012649186441944200D3A41A7641CA
:1017B000F8D33100012601E0764109D200186441D6
:1017C0006D41A41A9D41F7D2A4185D41B619F5D315
:1017D000300022002B0070BD1B42CFD108B500F0B5
:1017E00011F808BD01D19042CAD202000B000021BD
:1017F0000020704780B5012000F006F801BDFEE72B
:101800007047FEE77047FEE780B500F007F8024A30
:1018100011001820ABBEFBE72600020010B500F057
:101820003BF8020000230024E4431068A04203D0E8
:1018300011000220ABBE13605068A04203D0111DFE
:101840000220ABBE536010BDF0B583B0060000F0BF
:1018500023F8B10047183C680025ED43AC4216D18F
:1018600000BF00BF3C68AC420FD100BF09A0009090
:10187000002E01D1002000E00420019003200290FE
:1018800069460120ABBE04003C6000BF00BF2000E1
:1018900003B0F0BD3A74740000487047380100206E
:1018A0004942C841704700B5814201D20800FFE7B4
:1018B00000BD0000F2B584B00500049CE86C019006
:1018C000286D0290686D0090A86D03900721019F1C
:1018D000039E029B009A03985040184070403A18AB
:1018E00020681218EE481018FFF7DAFF0299401826
:1018F00001900C21039F009E019B029A009850408A
:10190000184070403A1860681218E6481018FFF73F
:10191000C7FF0199401803901121009F029E039B6D
:10192000019A02985040184070403A18A068121866
:10193000F1481018FFF7B4FF0399401800901621E2
:10194000029F019E009B039A0198504018407040EE
:101950003A18E0681218E9481018FFF7A1FF00993B
:10196000401802900721019F039E029B009A039852
:101970005040184070403A1820691218E04810187A
:10198000FFF78EFF0299401801900C21039F009EE3
:10199000019B029A00985040184070403A186069C4
:1019A0001218EC481018FFF77BFF019940180390BC
:1019B0001121009F029E039B019A029850401840FB
:1019C00070403A18A0691218E3481018FFF768FF32
:1019D0000399401800901621029F019E009B039AD4
:1019E00001985040184070403A18E0691218EC48CD
:1019F0001018FFF755FF0099401802900721019F2A
:101A0000039E029B009A03985040184070403A1879
:101A1000206A1218E3481018FFF742FF0299401895
:101A200001900C21039A009F019E029B0098584050
:101A3000304078401218606A1218EC481018FFF70E
:101A40002FFF0199401803901121009F029E039BD4
:101A5000019A02985040184070403A18A06A121833
:101A6000E3481018FFF71CFF039940180090162157
:101A7000029F019E009B039A0198504018407040BD
:101A80003A18E06A1218DB481018FFF709FF0099AE
:101A9000401802900721019F039E029B009A039821
:101AA0005040184070403A18206B1218E448101843
:101AB000FFF7F6FE0299401801900C21039F009E4B
:101AC000019B029A00985040184070403A18606B91
:101AD0001218DC481018FFF7E3FE01994018039034
:101AE0001121009F029E039B019A029850401840CA
:101AF00070403A18A06B1218E5481018FFF7D0FE96
:101B00000399401800901621029F019E009B039AA2
:101B100001985040184070403A18E06B1218DD48A8
:101B20001018FFF7BDFE0099401802900521019F93
:101B3000009E039B029A00985040184070403A184B
:101B400060681218E6481018FFF7AAFE02994018BC
:101B500001900921039F029E009B019A0298504028
:101B6000184070403A18A0691218DE481018FFF7A4
:101B700097FE0199401803900E21009F019E029B41
:101B8000039A01985040184070403A18E06A1218C1
:101B9000D5481018FFF784FE0399401800901421CF
:101BA000029F039E019B009A03985040184070408A
:101BB0003A1820681218DF481018FFF771FE0099D4
:101BC000401802900521019F009E039B029A0098F5
:101BD0005040184070403A1860691218D6481018E2
:101BE000FFF75EFE0299401801900921039F029EB3
:101BF000009B019A02985040184070403818A26A21
:101C00008218E0481018FFF74BFE01994018039026
:101C10000E21009F019E029B039A0198504018409C
:101C200070403A18E06B1218D7481018FFF738FECA
:101C30000399401800901421029F039E019B009A73
:101C400003985040184070403A1820691218E14833
:101C50001018FFF725FE0099401802900521019FFA
:101C6000009E039B029A009850401840704038181C
:101C7000626A8218D8481018FFF712FE02994018BD
:101C800001900921039F029E009B019A02985040F7
:101C9000184070403A18A06B1218D04804E000BFFA
:101CA00078A46AD756B7C7E81018FFF7F9FD01996D
:101CB000401803900E21009F019E029B039A0198F9
:101CC0005040184070403A18E0681218D648101872
:101CD000FFF7E6FD0399401800901421029A039F34
:101CE000019E009B03985840304078401218206AAB
:101CF0001218CE4806E000BFDB702024EECEBDC136
:101D0000AF0F7CF51018FFF7CBFD0099401802903B
:101D10000521019F009E039B029A009850401840A5
:101D200070403A18606B1218D6481018FFF7B8FDCB
:101D300002994018019009210398029A009B019E84
:101D4000029F77401F405740C219A0681218CE4822
:101D500004E000BF2AC68747134630A81018FFF7D3
:101D60009FFD019946180E21009F019B029A019840
:101D70007040104058403A18E0691218D8481018BE
:101D8000FFF78EFD801900901421029B019A0098A4
:101D90007040104070401A18206B1218D14803E0B0
:101DA000019546FDD89880691018FFF779FD0099D4
:101DB000401802900421019B029A00985040704004
:101DC0001A1860691218DD481018FFF769FD0299AA
:101DD000401801900B21019A02985040009A42400D
:101DE000B218206A1218D64806E000BFAFF7448B3D
:101DF000B15BFFFFBED75C891018FFF751FD019959
:101E00004018039010210098039B019A5A40029BAE
:101E10005340C218E06A1218CA481018FFF740FD74
:101E200003994018009017210298009B039A5A408A
:101E3000019B5340C218A06B1218D84804E000BFA1
:101E40002211906B937198FD1018FFF729FD0099EE
:101E5000401802900421019A029B00985840039B6D
:101E60004340D21860681218CD481018FFF718FDCB
:101E70000299401801900B21039A019B0298584047
:101E8000009B4340D21820691218DB4804E000BFD1
:101E90008E4379A62108B4491018FFF701FD019976
:101EA000401803901021009A039B01985840029B10
:101EB0004340D218E0691218D0481018FFF7F0FC20
:101EC0000399401800901721029A009B03985840EC
:101ED000019B4340D218A06A1218DE4806E000BFFA
:101EE00062251EF640B340C0515A5E261018FFF717
:101EF000D7FC00994018029004210198029B009A97
:101F00005A40039B5340C218606B1018D24A801885
:101F1000FFF7C6FC0299401801900B210398019B22
:101F2000029A5A40009B5340C21820681218E04899
:101F300004E000BFAAC7B6E95D102FD61018FFF75E
:101F4000AFFC01994018039010210098039B019A5F
:101F50005A40029B5340C218E0681218D548101826
:101F6000FFF79EFC03994018009017210298009BF0
:101F7000039A5A40019B5340C218A0691218CE48D8
:101F800004E000BF5314440281E6A1D81018FFF703
:101F900087FC00994018029004210198029B009A46
:101FA0005A40039B5340C218606A1218C348101865
:101FB000FFF776FC0299401801900B210398019BD2
:101FC000029A5A40009B5340C218206B1218DC48FA
:101FD00006E000BFC8FBD3E7E6CDE121D60737C353
:101FE0001018FFF75DFC019940180390102100982C
:101FF000039B019A5A40029B5340C218E06B12188F
:10200000D0481018FFF74CFC039940180090172196
:102010000298009B039A5A40019B5340C218A06843
:102020001218C94804E000BF870DD5F4ED145A45D5
:102030001018FFF735FC009940180290062101980E
:10204000009A029B9C46039BDF4363461F43574015
:10205000C21920681218CB481018FFF721FC02990A
:10206000401801900A21039A029B019FBC46009FE1
:10207000F8436746384358401218E0691218C248BE
:1020800004E000BF05E9E3A9F8A3EFFC1018FFF78F
:1020900007FC0199401803900F21009A019B039FB0
:1020A000BC46029FF8436746384358401218A06B5D
:1020B0001218B6481018FFF7F3FB03994018009068
:1020C0001521029A039B009FBC46019FF843674677
:1020D00038435840121860691218AD4804E000BF38
:1020E000D9026F678A4C2A8D1018FFF7D9FB009927
:1020F000401802900621019A009B029FBC46039F54
:10210000F8436746384358401218206B1218A1480C
:102110001018FFF7C5FB0299401801900A21039A95
:10212000029B019FBC46009FF843674638435840D6
:102130001218E0681218984806E000BF4239FAFF0A
:1021400081F6718722619D6D1018FFF7A9FB019937
:10215000401803900F21009A019B039FBC46029FE9
:10216000F8436746384358401018A26A82188B48D3
:102170001018FFF795FB039940180090152102985D
:10218000039A009B9C46019BDF4363461F435740D5
:10219000C21960681218824804E000BF0C38E5FDDF
:1021A00044EABEA41018FFF77BFB00994018029088
:1021B0000621019A009B029FBC46039FF843674695
:1021C000384358401218206A121876481018FFF742
:1021D00067FB0299401801900A21039A029B019F14
:1021E000BC46009FF8436746384358401218E06BDE
:1021F00012186D4804E000BFA9CFDE4B604BBBF660
:102200001018FFF74DFB0199401803900F21009A19
:10221000019B039FBC46029FF843674638435840E2
:102220001218A069121861481018FFF739FB0399BA
:10223000401800901521029A039B009FBC46019F05
:10224000F8436746384358401218606B12185848D4
:1022500004E000BF70BCBFBEC67E9B281018FFF70D
:102260001FFB0099401802900621019A009B029FD3
:10227000BC46039FF843674638435840121820690C
:1022800012184C481018FFF70BFB029940180190E8
:102290000A21039A029B019FBC46009FF8436746B0
:1022A000384358401218E06A1218434808E000BF4B
:1022B000FA27A1EA8530EFD4051D880439D0D4D996
:1022C0001018FFF7EDFA0199401803900F21009ABA
:1022D000019B039FBC46029FF84367463843584022
:1022E0001218A068121835481018FFF7D9FA039988
:1022F000401800901521029A039B009FBC46019F45
:10230000F8436746384358401218606A12182C4840
:102310001018FFF7C5FA00994118EA6C01981018D7
:10232000E864286D401828656A6D00981018686583
:10233000AA6D03981018A865002005B0F0BD000034
:10234000E599DBE6F87CA21F6556ACC400B542688F
:1023500043685B1843604368934202D283685B1C06
:10236000836000BD010000221000164BCB64164BA9
:102370000B65164B4B65164B8B650A604A608A608D
:1023800070470000442229F497FF2A43A72394AB07
:1023900039A093FCC3595B6592CC0C8F7DF4EFFFA1
:1023A000D15D84854F7EA86FE0E62CFE144301A327
:1023B000A111084E827E53F735F23ABDBBD2D72A1F
:1023C00091D386EB0123456789ABCDEFFEDCBA984C
:1023D00076543210F8B504000D0017000026002CCA
:1023E00002D1AC20C04305E0E5652000FFF7BAFF4D
:1023F0000028FFD1F2BDF8B586B006000D0014002C
:1024000000270197002E03D0002D04D1002C02D00C
:10241000AC20C04361E03068402802D38320C04331
:102420005BE0002D03D1002C01D1002055E02100FC
:102430003000FFF78BFF30000C300290306800282E
:1024400029D040213068091A2000FFF72CFA0090AB
:102450000098059004950299306808180390059A31
:1024600004990398FEF74AFE03983168009808180B
:10247000306000982D180098241A306840280AD13E
:1024800002993000FFF716FA01900198002801D058
:10249000019822E03760402C13D330000C300390B9
:1024A000402005900495039F059A04993800FEF793
:1024B00025FE4035403C03993000FFF7FBF90190C1
:1024C000E9E7002C08D004940395029F049A03992D
:1024D0003800FEF713FE3460019807B0F0BDF3B585
:1024E00087B00400002C02D00898002802D1AC204C
:1024F000C0435DE026000C362068411C216080212D
:1025000031542068392816D340212068081A0190D8
:102510000025009520683718009A0199380000F0CE
:102520004DF8216840312068081A206031002000F1
:10253000FFF7C0F9256038212068081A06900020AE
:10254000059020683518059A0699280000F036F89D
:102550006068400FA168C9004018A0606068C000B2
:10256000606004270497201D039035003835049AD5
:1025700003992800FEF7C2FD029720000830019061
:1025800035003C35029A01992800FEF7B7FD31006D
:102590002000FFF78FF9102520004C300090089F95
:1025A0002A0000993800FEF7A9FD2000FFF7DAFEA7
:1025B00009B0F0BD00B50028FFD000BD1206130A17
:1025C0001A43130C1A4300BF094205D0830705D0F4
:1025D0000270401C491EF9D17047000013001039E9
:1025E00006D330B41400150010393CC0FCD230BC06
:1025F000490700D30CC000D504C0890002D3028073
:10260000801C002900D502707047FEE7C841704762
:10261000010008BA7047F4B504000F00009886085E
:102620000025B54209D2042068433858FFF7F0FF6F
:102630000421694360506D1CF3E7F1BD00B5814290
:1026400001D20800FFE700BDFEB507000024019499
:10265000002F02D1AC20C0431BE0202500943E0097
:10266000009A29003000FFF7A9FF0A4838600A489D
:1026700078600A48B8600A48F8600A4838610A4831
:1026800078610A48B8610A48F8613C667C66BC66B5
:102690000198FEBD67E6096A85AE67BB72F36E3CC2
:1026A0003AF54FA57F520E518C68059BABD9831F1D
:1026B00019CDE05BF8B504000D0017000026002CD2
:1026C00002D1AC20C04305E02000FFF7BDFF002889
:1026D00000D1E566F2BD0000F3B58DB0802040006A
:1026E00000F038FC01900198002802D17C20C04302
:1026F000E9E20020082809DA0D9A042141435158E3
:1027000003AA04234343D150401CF3E700211029BE
:1027100009DA0E9A042048431058019A04234B43C7
:10272000D050491CF3E71025402D4DDA11210198B6
:1027300004226A43801808380068FFF767FF070023
:102740001321019A04206843101808380068FFF725
:102750005DFF06000721019804226A4380183C3877
:102760000068FFF753FF04001221019804226A4316
:1027700080183C380068FFF749FF7E400199042229
:102780006A43891808390968890A7140019B042243
:102790006A439A181C3A126889186040019B042207
:1027A0006A439A183C3A1268D20842408918019844
:1027B00004226A43801840380068081801990422EE
:1027C0006A4388506D1CAFE70020029002984028B1
:1027D00000DB5FE206210798FFF718FF05000B21D9
:1027E0000798FFF713FF040019210798FFF70EFF62
:1027F0000A996C4060400C18099B079A089909983F
:102800004840104058402118E34A02980423584396
:1028100010580918019A02980423584310580818B0
:10282000009002210398FFF7F1FE05000D210398A7
:10283000FFF7ECFE040016210398FFF7E7FE6C405B
:1028400060400399049A0A4305991140039A049B36
:1028500013400B43C0180B90069900980818069077
:1028600000990B9808180A9006210698FFF7CEFEEB
:1028700005000B210698FFF7C9FE040019210698F0
:10288000FFF7C4FE09996C4060400C18089B069A3B
:10289000079908984840104058402118BE4A0298AD
:1028A00004235843101840680918019A0298042319
:1028B0005843101840680818009002210A98FFF742
:1028C000A5FE05000D210A98FFF7A0FE04001621C1
:1028D0000A98FFF79BFE6C4060400A9A03991143E7
:1028E000049A0A400A9B03991940114340180B901F
:1028F000059800994018059000980B994018099088
:1029000006210598FFF782FE05000B210598FFF7C9
:102910007DFE040019210598FFF778FE08996C40A8
:1029200060400C18079B059A06990798484010408C
:1029300058402118984B0298042250431818806878
:102940000918019A0298042358431018806808183F
:10295000009002210998FFF759FE05000D21099802
:10296000FFF754FE040016210998FFF74FFE6C4054
:10297000604009990A9A0A4303991140099A0A9BEF
:1029800013400B43C0180B9004990098081804904A
:1029900000980B994018089006210498FFF736FE1E
:1029A00005000B210498FFF731FE0400192104985B
:1029B000FFF72CFE07996C4060400C18069B049AA8
:1029C0000599069848401040584022187249029BC9
:1029D00004204343C818C0681118019B02980422C0
:1029E00050431818C0680818009002210898FFF793
:1029F0000DFE05000D210898FFF708FE04001621C2
:102A00000898FFF703FE6C406040089A099911434B
:102A10000A9A0A40089B09991940114340180B90E3
:102A2000039800994018039000980B99401807905C
:102A300006210398FFF7EAFD05000B210398FFF735
:102A4000E5FD040019210398FFF7E0FD06996C40AD
:102A500060400C18059B039A049905984840104063
:102A6000584022184C49029B04204343C81800696F
:102A70001118019B02980422504318180069081885
:102A8000009002210798FFF7C1FD05000D2107986E
:102A9000FFF7BCFD040016210798FFF7B7FD6C4057
:102AA0006040079A08991143099A0A40079B0899C0
:102AB0001940114340180B900A98009940180A9049
:102AC00000980B994018069006210A98FFF79EFD82
:102AD00005000B210A98FFF799FD040019210A98B7
:102AE000FFF794FD05996C4060400C18049B0A9A0E
:102AF000039904984840104058402118264B0298EA
:102B000004225043181840690918019B02980422B6
:102B10005043181840690818009002210698FFF7E2
:102B200075FD05000D210698FFF770FD04001621C4
:102B30000698FFF76BFD6C406040069A07991143B9
:102B4000089A0A40069B07991940114340180B90B8
:102B5000099800994018099000980B994018059021
:102B600006210998FFF752FD05000B210998FFF790
:102B70004DFD040019210998FFF748FD04996C40A8
:102B800060400C18039B099A0A990398484010402A
:102B900058402118004B01E0EC4400080298042240
:102BA0005043181880690918019B02980422504369
:102BB000181880690F1802210598FFF727FD0500F6
:102BC0000D210598FFF722FD040016210598FFF757
:102BD0001DFD6C406040059A06991143079A0A4012
:102BE000059B06991940114346180898C01908908A
:102BF000B819049006210898FFF708FD05000B217D
:102C00000898FFF703FD040019210898FFF7FEFC60
:102C100003996C40604009180A9A089C099B0A981D
:102C20005840204050400918284B02980422504335
:102C30001818C0690918019B0298042250431818FB
:102C4000C0690818009002210498FFF7DFFC050016
:102C50000D210498FFF7DAFC040016210498FFF711
:102C6000D5FC6C406040049A05991143069A0A40CD
:102C7000049B05991940114340180B90079900983F
:102C80000818079000990B980818039002980830CC
:102C900002909BE50024082C0EDA0D980421614374
:102CA000415803AA04206043105808180D990422C3
:102CB00062438850641CEEE7019D002D02D028007D
:102CC00000F057F900200FB0F0BD0000EC44000800
:102CD00000B5426E436E5B184366436E934202D268
:102CE000836E5B1C836600BDF8B586B006000D00E0
:102CF000140000270097002E03D0002D04D1002CD3
:102D000002D0AC20C04372E0002D03D1002C01D1D1
:102D100000206CE0306E402802D38320C04366E080
:102D200021003000FFF7D4FF300020300390306ED8
:102D3000002830D04021306E091A2000FFF77EFCB9
:102D400001900198059004950398316E4018029007
:102D5000059A04990298FEF7D1F90298316E01980C
:102D60000818306601982D180198241A306E4028F2
:102D700011D140223100203130002030FFF74BFCD0
:102D800003993000FFF7A8FC00900098002801D1BB
:102D9000376600E03C00402C1AD33000203002900F
:102DA000402005900495029F059A04993800FEF78B
:102DB000A5F94035403C402202990298FFF72BFCD0
:102DC00002993000FFF788FC009000980028E2D0BC
:102DD000009800280AD1002C08D004940295039F83
:102DE000049A02993800FEF789F93466009807B012
:102DF000F0BD70B506000D001400002E03D0002DAC
:102E000004D1002C02D0AC20C0430AE0002D03D135
:102E1000002C01D1002004E0220029003000FFF73F
:102E200063FF70BDF8B586B00400002C02D1AC2061
:102E3000C04364E026002036206E411C21668021BC
:102E40003154206E392823D34021206E081A029075
:102E500000250195206E3718019A02993800FFF776
:102E6000ADFB206E4030216E401A206640222100CA
:102E7000203120002030FFF7CEFB31002000FFF78B
:102E80002BFC00900098002801D0009837E02566C0
:102E90003821206E081A059000200490206E351805
:102EA000049A05992800FFF789FB606E400FA16E18
:102EB000C9004018A066606EC00060664022210014
:102EC000203120002030FFF7A6FB042703972000C5
:102ED0006830029035003835039A02992800FEF7D1
:102EE0000DF901972500643537003C37019A290018
:102EF0003800FEF703F931002000FFF7EDFB07B0C3
:102F0000F0BDFEB504000E00002C01D0002E02D151
:102F1000AC20C04318E02000FFF784FF0500002D1F
:102F200001D0280010E0202221002000FFF773FBD1
:102F30002020019000943700019A00993800FEF794
:102F4000DDF82000FFF780FBFEBD00B50028FFD0B4
:102F500000BDFEE738B5050000240D4908680028CB
:102F600003D028000968884702E0280000F014F820
:102F700032BD10B5040007490868002803D02000BE
:102F80000968884702E0200000F0A6F810BD0000A4
:102F9000880200208C02002010B5040000BF00BF92
:102FA000200000F005F8040000BF00BF200010BDA5
:102FB00038B504000F3407218C43A0422BD2082CD3
:102FC00004D2082402E0083000F049F841480268C1
:102FD000110005D1002207E02B68A3420DD2291D64
:102FE0000D68002DF8D11268011D00E0291D0D6843
:102FF00095420CD02B68A342F8D300290BD00A6865
:103000001368083BA34208D253680B600FE000F03E
:1030100067F80028D7D1002032BD13190B6055681E
:10302000131D1D5113681D1B0B681D6014600B6878
:10303000002B04D05968002901D0191D00E000219F
:1030400001601000083032BD10B5040006D000BF8A
:1030500000BF200000F003F800BF00BF10BD002833
:1030600000D1704770B408380168072930D94A0781
:103070002ED1184A5568002D01D0A84203D24560D0
:10308000506017E025006C68002C01D08442F9D311
:103090002E68AC19A0421BD3844203D1701828605B
:1030A000280007E06B68002B02D041188B420FD339
:1030B00043606860416800290AD00368C4188C42E4
:1030C00006D1002414600A689A18026049684160B9
:1030D00070BC70476402002080B5FFF7B5FF01BDEA
:1030E00007490868002801D00020704705480722DA
:1030F00090430860044A07218A43111A016070470F
:10310000A4020020AF060020F8080020F8B584B023
:103110000500002D01D101207DE201262868304004
:1031200000285CD0B3480168382008400290B248BB
:1031300000688007800F01900298102802D1019842
:10314000032802D00298082808D1AC480068800300
:1031500045D56868002842D101205CE28020400209
:103160006968814204D1A5490A681043086017E0E4
:103170006968A022D202914209D1A0490A6880233D
:10318000DB0213430B600A681043086008E09B48A9
:103190000168B04A0A4002600168AF4A0A40026012
:1031A000686800280DD000F085FB04009348006893
:1031B000800314D400F07EFB001B6528F6D30320A7
:1031C00029E200F077FB04008C480068800306D5F4
:1031D00000F070FB001B6528F6D303201BE2287863
:1031E000800776D5834801683820084002908248DD
:1031F00000688007800F01900298102802D1019882
:10320000022802D0029800282CD17C490868400589
:1032100004D5E868002801D10120FCE1A948036831
:10322000A94A1A406B691B021343036002980028E5
:1032300010D10A68A54810402A6902430A60A448D0
:103240000968C90A4A07520F31009140FEF713F985
:10325000A0490860A048006800F032FB002838D080
:103260000120D8E1E868002821D0644F39689748E8
:1032700008402969014339603868802149000143C9
:10328000396000F017FB04003868400506D400F0F0
:1032900011FB001B0328F7D30320BCE18948026817
:1032A000894911406A6912020A43026011E0534FD2
:1032B0003868BD490140396000F0FCFA0400386804
:1032C000400506D500F0F6FA001B0328F7D30320CB
:1032D000A1E12878000734D5464801683820084025
:1032E000182808D1B148006880072AD5A8690028A5
:1032F00027D101208FE1A869002810D0AB4F386892
:103300003043386000F0D6FA04003868800718D4DB
:1033100000F0D0FA001B0328F7D303207BE1A34F72
:10332000386801218843386000F0C4FA0400386826
:10333000800706D500F0BEFA001B0328F7D3032050
:1033400069E1042728683840002800D18FE0002078
:1033500069460870274801683820084020280AD1AB
:10336000AE480068800700D481E0A868002800D03B
:103370007DE001204FE180204005A9490968014016
:1033800000290AD1A64A116801431160116808405A
:1033900003900398310068460170A2480068C00598
:1033A00014D4A04801688020400008439D4908606B
:1033B00000F080FA04009B480068C00506D400F0C5
:1033C00079FA001B0328F6D3032024E1A86801281A
:1033D00004D1924801680E4306601AE0A8680528E7
:1033E0000ED18E4801680F43076001680E430660E6
:1033F0000FE000BF081002400C1002400010024015
:103400008648026801218A430260026804218A43D7
:103410000260A86800280ED000F04CFA04007F4833
:10342000006880071AD400F045FA001B7E498842E4
:10343000F5D30320EFE000F03DFA04007748006880
:1034400080070BD500F036FA001B77498842F5D388
:103450000320E0E0FFFFFEFFFFFFFBFF6846007870
:10346000012804D16E480268704911400160287833
:10347000800633D5E869002812D06D4E316880206F
:10348000C0030843306000F015FA04003068000201
:1034900024D400F00FFA001B0328F7D30320BAE06E
:1034A000634E316863480840306000F003FA04005E
:1034B0003068000212D500F0FDF9001B0328F7D395
:1034C0000320A8E004100240FF80FFFFFFC7FFFFBA
:1034D0000024F4000400002000000020286A0028D6
:1034E00000D197E0544800683821014010295FD08E
:1034F000286A02283FD14E4F3968AF4808403860EB
:1035000000F0D8F900908026B604386830400028D2
:1035100007D000F0CFF90099401A0328F3D3032015
:1035200079E0A6480168A64A0A40696A1143AA6A76
:103530000A43E96A090211432A6B0A43696B114382
:10354000AA6B0A4302603A6880214904114339603A
:103550000268802149051143016000F0ABF90400C5
:1035600038683040002855D100F0A4F9001B03282A
:10357000F6D303204FE02E4E30688F490140316072
:1035800000F098F904003068800106D500F092F947
:10359000001B0328F7D303203DE0884802688949CF
:1035A0001140016036E000BFFFFEFFFF60100240E7
:1035B000286A012801D101202DE08048006801908F
:1035C00001988107890F686A814221D10199702091
:1035D0000840A96A88421BD10199FE20C001084019
:1035E000E96A0902884213D10199F8208003084052
:1035F000296B88420CD10199E02000050840696BD5
:10360000884205D10198400F4007A96B884201D03C
:10361000012000E0002005B0F0BD00005C10024079
:103620003C1002400070004089130000FFFFFFEFD4
:1036300000100240FFFFBFFF08100240F3B581B049
:103640000600002E01D10120B5E007245E4D296857
:1036500021400298814216D22868072188430299A6
:103660000143296000F026F9009029682140029862
:10367000814208D000F01EF90099411A8048814229
:10368000F3D3032097E002203168014000290FD0D6
:103690003178490705D57B4B1968E022D2010A43EE
:1036A0001A6078490B68784A1A40B36813430B6074
:1036B0003178C90745D57168012905D1734800687B
:1036C000800324D4012076E07168022905D16F4877
:1036D000006880011BD401206DE07168002905D1CC
:1036E0006A480068400512D4012064E0716803292B
:1036F00006D1674909680840002808D101205AE02E
:10370000644909680840002801D1012053E05D4F59
:1037100038680721884371680143396000F0CAF8AE
:1037200000903968382008407168C900884208D084
:1037300000F0C0F80099411A51488142F1D30320AA
:1037400039E0029928682040814216D22868072172
:10375000884302990143296000F0ACF80090296881
:1037600021400298814208D000F0A4F80099411A43
:1037700043488142F3D303201DE03078400706D54B
:103780004048026844491140F2680A43026000F070
:103790001DF842493B4A1268120A13071B0F042204
:1037A0005343C95CC906C90EC8403D4908603D483D
:1037B000006800F085F8FEBDFFFFFFFE0C10024020
:1037C0008C80C111FCFFFEEE00200240FCB53820C9
:1037D0002C490A680240002A0CD101202B490968B3
:1037E000C90A4907490F884005002F482900FDF7FD
:1037F00042FE44E00A680240082A01D12B483EE01C
:103800000A680240102A2BD1294E30688007800FA9
:103810000190306800094007400F401C04000198E7
:1038200003280AD121482100FDF725FE3168090A45
:103830004906490E4843070009E01B482100FDF7EF
:103840001AFE3168090A4906490E484307003068E4
:10385000400F401C009038000099FDF70CFE0EE070
:103860000A680240202A02D18020000207E009688D
:103870000840182802D1FA20C00100E00020F6BD5F
:103880008913000008100240FFF0FFFF0010024003
:10389000601002405C100240FF8FFFFFB84C000830
:1038A00004000020000000200024F40000127A0030
:1038B0000C10024001480068704700BF90020020D1
:1038C00038B5050000241449087800281ED0FA20D5
:1038D00080000978FDF7CFFD010010480068FDF772
:1038E000CAFD00F088F800280DD1042D08D200226E
:1038F00029000020C04300F074F80948056007E083
:103900000120040004E00120040001E00120040083
:103910002000C0B232BD00BF4001002004000020E2
:1039200000000020F0B5020052B2002A1CD4032788
:10393000344A03005BB29C0804235C431359FF25FF
:103940003C00044008267443A540AB438C01E4B21C
:10395000074008256F43BC401C4303005BB29D0831
:1039600004235D43545122E00F24274A032305001A
:103970006DB22540083DAD0804267543AC460500F0
:103980006DB22C40083CA508042465435659FF2716
:103990001D00054008246543AF40BE438C01E4B2DE
:1039A000034008256B439C40344365465451F0BDA9
:1039B00010B50400611E80204004814201D3012023
:1039C0000EE0611E1148016003210020C043FFF793
:1039D000A9FF00210E48016007210E480160002068
:1039E00010BD70B505000C0016002100280040B283
:1039F000FFF798FF70BD10B504002000FFF7D8FF57
:103A000010BD000000E400E01CED00E014E000E068
:103A100018E000E010E000E0F8B505000F00140029
:103A2000002000900126F6433800032802D0062823
:103A300006D00BE0320021002800FEF7CBFC07E0A7
:103A4000320021002800FEF735FE01E0AC20C04323
:103A5000882149006C50F2BDFFB587B006000027F1
:103A6000019700970597002E23D00998002802D1CE
:103A70000A9800281DD1089803281DD0089804280A
:103A80001AD00898052817D00898062814D0089846
:103A9000072811D0089808280ED008980A280BD0BB
:103AA00008980B2808D008980C2805D008980D28ED
:103AB00002D0AC20C043A0E08A204000305C002847
:103AC00002D0300000F077F93800FF211631705431
:103AD00008998A2040003154059A08993000FFF770
:103AE0009BFF0500002D01D0280086E030007030DB
:103AF00000903000B03006908A204000305C0328EF
:103B000002D0062827D04DE0402001900A98412895
:103B10000FD2099800281DD00A98049009980390A4
:103B200000980290049A03990298FDF7E7FA029828
:103B300010E00A9A09993000FEF75DFC0500002D9F
:103B400033D100993000FEF7CAFC0500002D2CD1BE
:103B500010200A9029E0402001900A9841280FD2B5
:103B6000099800281DD00A9804900998039000989D
:103B70000290049A03990298FDF7C0FA029810E0A7
:103B80000A9A09993000FFF734F90500002D0CD18D
:103B900000993000FFF7B5F90500002D05D1202070
:103BA0000A9002E0AC20C04327E0002D24D10A99FE
:103BB000019881420ED201990A98081A049003973D
:103BC00000990A9808180290039A04990298FEF73F
:103BD000F5FC02983C00019884420DD20098015DEA
:103BE0005C204840069908550098015D3620484001
:103BF00000990855641CEEE728000BB0F0BD38B5FD
:103C0000040000258A204000205C032802D00628FA
:103C100008D00FE04022210070312000FEF7EBFBBE
:103C2000050007E04022210070312000FFF7E1F895
:103C30000500FFE7002D03D10121FF20163021549C
:103C4000280032BDF8B505000F0016000024002D35
:103C500003D0002F04D1002E02D0AC20C04323E0BB
:103C6000FF201630285C002807D12800FFF7C7FF87
:103C70000400002C01D0200016E08A204000285CBF
:103C8000032802D0062807D00DE0320039002800B2
:103C9000FEF7B1FB040006E0320039002800FFF710
:103CA000A8F80400FFE72000F2BDF8B505000E00FB
:103CB000002D01D0002E02D1AC20C0435DE0FF20DA
:103CC0001630285C002807D12800FFF798FF07006E
:103CD000002F01D0380050E08A204000285C0328E3
:103CE00002D0062820D03FE02900F0312800FEF75E
:103CF000F6FB0400002C39D140222900B031280005
:103D0000FEF779FB0400002C30D110222900F0319D
:103D10002800FEF770FB0400002C27D1310028009A
:103D2000FEF7DDFB040021E02900F0312800FFF759
:103D3000E8F80400002C19D140222900B0312800F5
:103D4000FFF757F80400002C10D120222900F03191
:103D50002800FFF74EF80400002C07D1310028009E
:103D6000FFF7CFF8040001E0AC24E443002C03D1BA
:103D70000021FF20163029542000F2BDF7B582B093
:103D8000070000240194002F02D1AC20C04310E0B2
:103D90008C256D0000943E00009A29003000FEF74B
:103DA0000DFC8A2040003C54039988204000395083
:103DB000019805B0F0BD10B50400002C0FD08A208A
:103DC0004000205C032802D0062804D007E0200031
:103DD000FEF7F0FB03E02000FFF7B7F8FFE710BDA8
:103DE00030B5002393420BD204245C4305590424CC
:103DF0005C430C596C4004255D4344515B1CF1E766
:103E000030BDF8B506000D001400280030432043F3
:103E10008007800F002805D1A20829003000FFF795
:103E2000DFFF0AE0300029000027A74205D2C25D6B
:103E3000CB5D5340C3557F1CF7E7F1BD00B5814210
:103E400001D20800FFE700BDFEB588B007000126DB
:103E5000002F08D00998002805D41098002802D413
:103E60001298002802D5AC20C043B4E01198012874
:103E700001DA01201190139800F0CAF869464870E1
:103E80006846407800F0CFF804900498002802D5E6
:103E9000AC20C0439FE02020FFF75CF8029002981E
:103EA000002802D17C20C04395E08C204000FFF721
:103EB00051F801900198002808D1029D002D02D0F0
:103EC0002800FFF756F87C20C04384E0159A149927
:103ED0000198FFF753FF0500002D6BD1099B089A4D
:103EE00013990198FFF7B8FD0500002D5FD11298D6
:103EF00000285CD0109A0A990198FFF7A3FE0500EC
:103F0000002D54D100200400042C12DA03212000DB
:103F1000091A082041433000C84069460870012250
:103F200069460198FFF78EFE0500002D01D1641C43
:103F3000EAE7002D3BD102990198FFF7B6FE050094
:103F4000002D34D104991298FFF778FF039003985D
:103F50000790029806900597079A06990598FDF72D
:103F6000CDF80598012004001198844215DA049ACE
:103F700002990198FFF766FE0500002D0DD1029908
:103F80000198FFF792FE0500002D06D1039A0299D1
:103F90003800FFF736FF641CE6E7002D07D10398D1
:103FA0003F1812990398081A1290761C9DE7019801
:103FB000FFF701FF029803900398002802D00398AE
:103FC000FEF7D7FF019803900398002802D00398CA
:103FD000FEF7CFFF28000BB0F0BDF8B586B00700A4
:103FE0000E0015001C000120C04305900020049025
:103FF0000F9803900E9802900D9801900C980090E5
:1040000023002A0031003800FFF71EFF07B0F0BD83
:1040100000B502000020012A03DB122A01DA110098
:104020000800C0B200BD00B50100E720C0430A008F
:10403000D2B2012A19D02CD3032A18D016D3052ABC
:1040400019D017D3072A1AD016D3092A1BD017D391
:104050000B2A1AD018D30D2A19D017D30F2A17D02C
:1040600016D3112A0ED00CD313E015E014E0102261
:10407000100011E010E00FE0202210000CE00BE037
:104080000AE009E008E007E006E005E004E003E0FC
:1040900002E0AC22D243100000BDFEE753490160AC
:1040A00070475349016070475249016070474A07A1
:1040B000520F426070470A05120D8260704700B5CA
:1040C000C0684007400F002801D1012000E0002017
:1040D00000BDF0B591B000F0A1F800F02CF800F0B0
:1040E00077F800F05CF800F0BBF8434D434C4448CF
:1040F000049080277F021021002205AE3000FEF7D9
:104100005DFA2000FCF7CCFF06002800FCF7C8FF92
:1041100006210391202102910197009623000200BD
:10412000290009A8FFF759FF0600002E02D03548E4
:1041300000F0D8F8FEE730B593B03C21002422000F
:1041400004AD2800FEF73AFA102122006D4628003F
:10415000FEF734FA8020800000F0D8F80A2004909E
:1041600080204000079008944020099001200A9088
:104170000C9404A8FEF7CAFF002801D000F04AF80A
:104180000720009001940294039400216846FFF7F1
:1041900055FA002801D000F03DF813B030BD10B53D
:1041A000194C2000FFF77AFF2000FFF77DFF002168
:1041B0002000FFF77CFF15492000FFF77CFF20005F
:1041C000FFF77DFF0128FAD12000FFF76AFF10BD3D
:1041D00081B001200E4A1168014311601168084046
:1041E0000090009801B0704700000000CCCC0000A7
:1041F000AAAA000055550000704E00081C4F000888
:104200002C4F0008E44E000800300040FF0F000073
:104210003410024000B572B6FEE7FEE710B5002488
:104220000C4A106880214900014311600320FFF708
:1042300047FB002802D00120040001E000F092F8C2
:104240002000C0B210BD044B1968044A0A40024362
:104250001A6070470020024000000140FFF9FFFF94
:1042600070B50026174C2068002816D1164800F0BB
:10427000B4F800F017F80500002D04D0134800F042
:10428000A1F828000DE000F0BBF80600002804D0DB
:104290000F4800F097F8300003E02068401C2060D1
:1042A000300070BD38B500240A4D2868002807D1B9
:1042B000094800F013F80400002C01D10120286007
:1042C000200032BD940200203C4F00081C4E000824
:1042D000C04D00089C020020980200200100002030
:1042E0007047FEE70EB4C0B5020003A8019000209D
:1042F000009001AB0121044878440C30FBF7E2FE4A
:10430000029906B0084700BFB10B000030B50400A9
:104310000F4A10680F49014021431160802080003E
:10432000844212D10C480068062148430B49FDF72E
:10433000A2F8401C05000A480068400505D5002D7C
:1043400001D06D1EF7E7032000E0002030BD000023
:1043500000700040FFF9FFFF0400002040420F0002
:104360001470004080B501200B4A116801431160B0
:10437000116808400090009880204005074A1168A5
:10438000014311601168084000900098C020C000EF
:10439000FFF759FF01BD00BF401002403C10024032
:1043A00038B505000C00224A1068002804D021000E
:1043B00028001268904704E022001FA1204800F066
:1043C0004FF831BD10B504001C480068002803D028
:1043D00021000120FFF7E4FF10BD10B594B00400E8
:1043E00014480068002809D02300174A5021684665
:1043F00000F056F869460220FFF7D2FF14B010BD56
:1044000080B51048FFF76AFF002805D00F48FFF776
:10441000D9FF6920C04309E000200D4908600D491B
:1044200008600D4908600D490860002002BD0000C9
:104430006C0200207002002025730A007002002028
:104440009800002084020020D04E00080C4F000885
:104450007802002074020020800200207C020020EC
:104460000CB43EB504000D0006A80190200000BF6A
:1044700000BF0020009001AB2A00210007487844CB
:104480001A30FBF71FFE0500200000BF00BF280008
:1044900003B0029930BC03B0084700BF050A000012
:1044A00008B410B585B007AB049300240394002929
:1044B00002D10194029402E00190491E02910094FD
:1044C00004AB01A9084878441E30FBF7FBFD0199B5
:1044D000002900D00C70002800D4039805B0019981
:1044E00010BC02B0084700BF6D090000982F8A4237
:1044F00091443771CFFBC0B5A5DBB5E95BC2563936
:10450000F111F159A4823F92D55E1CAB98AA07D84D
:10451000015B8312BE853124C37D0C55745DBE7270
:10452000FEB1DE80A706DC9B74F19BC1C1699BE4F0
:104530008647BEEFC69DC10FCCA10C246F2CE92D80
:10454000AA84744ADCA9B05CDA88F97652513E98A4
:104550006DC631A8C82703B0C77F59BFF30BE0C6AB
:104560004791A7D55163CA0667292914850AB72739
:1045700038211B2EFC6D2C4D130D385354730A65D6
:10458000BB0A6A762EC9C281852C7292A1E8BFA2AD
:104590004B661AA8708B4BC2A3516CC719E892D115
:1045A000240699D685350EF470A06A1016C1A41998
:1045B000086C371E4C774827B5BCB034B30C1C3997
:1045C0004AAAD84E4FCA9C5BF36F2E68EE828F7456
:1045D0006F63A5781478C8840802C78CFAFFBE9070
:1045E000EB6C50A4F7A3F9BEF27871C6F8B50500DC
:1045F0000E0014001F00287880075DD0280000F00E
:104600009DF8002858D100963046002801D003C8F4
:104610002418012F3DD12888C00416D52A00443221
:10462000296A280000F0AAF806002A6B002A00D1A7
:104630002A69E968280000F0A1F8A11B0C1A6A6930
:10464000E968280000F09AF8241A002C29D129885A
:10465000C020800108400ED06868E8602861686169
:10466000A8616868E861280044302862280030307A
:104670006862002028630098002804D0083003C82E
:104680002A00343203C229880E48084028800020BE
:10469000F2BD022F05D0002F0AD10020C043844272
:1046A0000AD03A0021000320285600F06DF80400DB
:1046B0000020C0438442CAD1232000BF00BF002095
:1046C000C043F2BDFFCE0000F8B5060000BF00BF3A
:1046D000308880042DD5002574680027FF4300E052
:1046E000241803203056F2682100914207D2521A52
:1046F00000F071F8B84208D00028F1D105E000229E
:10470000002100F068F8B84200D101257068F0601F
:10471000B061F0613088002D08D08021890001430C
:104720003180300000BF00BF3800F2BD11490140A8
:104730003180300000BF00BF0020F2BDF8B5002876
:1047400015D100BF00BF00260B4C08250027FF43F2
:104750002068002804D0FFF7B7FF002800D53E00EE
:10476000241D6D1EF4D100BF00BF3000F2BDFFF765
:10477000ABFFF2BDFFDF0000E0000020914201D25C
:10478000501A7047002070473EB504000B001D0012
:10479000012A03D100F069F82D180BE0022A07D195
:1047A00000940020019069460C20ABBEC51801E0C2
:1047B000002A0CD10094019569460A20ABBE00285E
:1047C00005D100222100280000F02DF801E0002092
:1047D000C04303B030BD80B5002802D400F066F8B5
:1047E00002BD002002BDFEE730B4002100222E4BA6
:1047F0001C002568854210D0521CA56885420CD04B
:10480000521C2569854208D0521CA569854204D0F6
:10481000521C2034102AECD303E0D0001818016099
:10482000416030BC704770B400231F4C25002E68D7
:104830008E4210D05B1CAE688E420CD05B1C2E6981
:104840008E4208D05B1CAE698E4204D05B1C2035C2
:10485000102BECD307E00100DB00E318012A01D1A3
:104860005A688918596070BC704710B400210E4A0C
:1048700013001C68844210D0491C9C6884420CD0F0
:10488000491C1C69844208D0491C9C69844204D09C
:10489000491C20331029ECD303E0C80010184068ED
:1048A00000E0002010BC70474401002080B50029C2
:1048B00001D1002002BD012801D0022802D100F060
:1048C00004F802BD00F011F802BD30B583B00C0051
:1048D00015000120FCF7B8FF00900194029569468D
:1048E0000520ABBE281A03B030BD18B583B0030055
:1048F000140000930191029469460520ABBE012289
:104900001900201AFFF78FFF04B010BD38B504005E
:10491000E068A169884255D3228811002A4B0B40D8
:10492000022B09D0100402D58020800001E08420F1
:10493000C001104320803FE0C025ED012940A9427D
:1049400007D1A168884204D32000FFF7F7FE0028B2
:1049500032D12188E80808401ED161682000443027
:10496000814219D180208000FEF716FB002806D175
:10497000200044306060E060401CA0600CE02288B1
:10498000402111432180E060802189004118A1600D
:10499000606060616068E06160682061A068A0613B
:1049A000207840070BD502220021200000F00EF8ED
:1049B0000021C943884202D10020C04332BD208873
:1049C00005432580002032BD0290000070B5040030
:1049D0000D00160000BF00BF33002A000021200098
:1049E000FFF704FE0500200000BF00BF280070BDD7
:1049F00010B500220178090626D5002321490C684C
:104A0000844202D19B00CA501BE001234C688442BF
:104A1000F8D002238C688442F4D00323CC6884420B
:104A2000F0D004230C698442ECD005234C69844205
:104A3000E8D006238C698442E4D00723CC69844201
:104A4000E0D0FEF749FB10BD02800021C943C170D0
:104A500001004431416001004431C1600100443132
:104A60000161010044314161010044318161010073
:104A70004431C161010044310162010030314162C1
:104A800010BD0000E000002070B506000DD03078A9
:104A9000800703D003203056002809D500BF00BF8F
:104AA0003000FFF7A5FF00BF00BF0020C04370BD6E
:104AB0003000FFF743FE040000BF00BF307840061F
:104AC00002D57068FEF708FB00257560032030569C
:104AD000022805D900F018F8002801D00024E4438A
:104AE000F06B002809D000F01BF8002801D000244A
:104AF000E443F06BFEF7F0FAF5633000FFF778FF60
:104B000000BF00BF200070BD1CB5020000926946C6
:104B10000220ABBE04001000FFF766FE200016BDA9
:104B2000E0B50090FCF7BCFA019069460E20ABBEE0
:104B300003B000BDF1B401684118436858080A1871
:104B400000988068DB0701D54B46C01891422DD0F4
:104B50000D78491C032403262E4002D10E78F61C42
:104B6000491C2B090F2B07D10B780F33491C03E08D
:104B70000F78491C0770401C761EF9D1002BE5D038
:104B80000E78491CAD082C40032C01D10C78491C2F
:104B9000240235196C4205190024A61E9E42D5D068
:104BA0002E786D1C0670401C641CF6E700980C30D3
:104BB000F2BC7047686A6C747A4C00007072696E5F
:104BC00074665F733A20256E20646973616C6C6F44
:104BD000776564007072696E74663A206261642061
:104BE000256E20617267756D656E74007072696EF6
:104BF00074665F733A206261642025732061726776
:104C0000756D656E74000000000000006E616E003E
:104C10004E414E00696E6600494E4600300038B580
:104C20000C00C5B2200000BF00BFE168A06981424E
:104C300004D32000FFF76AFE00280FD4E068411C6F
:104C4000E16005702188080503D448050CD50A2DBC
:104C50000AD12000FFF772FD002805D0200000BF18
:104C600000BF0020C04332BD200000BF00BF2800AD
:104C700032BDFEE780B50D4A7A4430320C497944A2
:104C80002E318A4203D00B49FFF7C9FF02BD6946A6
:104C9000087001220120FFF79EFD012802D168461D
:104CA000007802BD0020C04302BD00BF61FCFFFFD1
:104CB00050B3FFF75000002000000000000000008B
:104CC00000000000000000000000000000000000E4
:104CD00000000000000000000100000002000000D1
:104CE00003000000040000000600000007000000B0
:104CF000080000000900000038B50D4C08252068A8
:104D0000002806D00178890703D0032141560029E5
:104D100003D5241D6D1EF2D102E0FFF7B5FEF8E7C2
:104D2000002200210020C043FFF755FD31BD00BF28
:104D3000E000002070B40121002213E00368001D90
:104D40000B4202D04D46EB185B1E1A601B1D241F40
:104D5000042CFAD21D00A60701D51A80AD1C0C4008
:104D600000D02A700468001D002CE7D170BC704789
:104D700010B5034A7A440832024C7C44A41D03E077
:104D80001C0000003800000004E0101D11685118DC
:104D900088470200A242F8D110BD000099FFFFFF32
:104DA00064010000440100200000000089FDFFFFB5
:104DB000C8010000E000000000000020FEE7000045
:104DC0004572726F72206372656174696E67206CE0
:104DD0006F6767696E67206D757465780000000005
:104DE00000F00DF8002801D0FFF7C2FF00BF00BFA0
:104DF000002000BF00BFFFF76CF900F002F80120AF
:104E0000704780B500F002F801BDFEE70746FFF7E6
:104E100073FF3846FCF7F8FCFBE7FEE748772063B2
:104E200072797074206D7574657820696E6974206C
:104E30006661696C656400000548014603B4684614
:104E400080F3098800BF00BF00BF00BFFFF7C8FFA5
:104E5000A5EDF5FE8268521C82604268002A06D0E9
:104E600003685A1C026019704168491E416070470E
:104E700072656C69616E63656A696F5F73656372A1
:104E800065745F6B6579000003480168034A127816
:104E900089180160704700BF900200204001002087
:104EA00038B505000C0029002000FFF7B8FEA0422D
:104EB00000D00025280032BD38B505000C002000C8
:104EC000FFF7D8FEA04200D00025280032BDFEE743
:104ED000776F6C6653534C20456E746572696E67CC
:104EE000202573004572726F72206465726976695D
:104EF0006E67206B65790A0000B5FEE700B5FEE736
:104F00007047704780B5FFF7BFFF01BD4261642065
:104F1000496E6974204D75746578000072656C691E
:104F2000616E636573616C745F31000038363535CE
:104F3000373730373236353536373400776F6C6671
:104F400043727970745F496E69740000014880474C
:104F500001480047754F0008394E0008FEE7FEE79C
:104F6000FEE7FEE7FEE7FEE7FEE7FEE7FEE7FEE719
:104F7000FEE7FEE77047000013040001100224F46E
:104F800000010910034C0000204D04524C04211B69
:104F9000A10852380CF10B011007020401011402A0
:104FA0000020640452140421346108129444F21362
:104FB00080484003080202C4014021082104213432
:104FC000610812DC44F212C848120824125004F29C
:104FD00006982CF00207764F00080452FF01E342C6
:084FE00010146300001C020123
:0400000508004E3968
:00000001FF
